{
  "_format": "hh-sol-artifact-1",
  "contractName": "Warranty",
  "sourceName": "contracts/Warranty.sol",
  "abi": [
    {
      "inputs": [
        {
          "internalType": "string",
          "name": "tokenName",
          "type": "string"
        },
        {
          "internalType": "string",
          "name": "tokenSymbol",
          "type": "string"
        },
        {
          "internalType": "address",
          "name": "_approvedMarketAddress",
          "type": "address"
        }
      ],
      "stateMutability": "nonpayable",
      "type": "constructor"
    },
    {
      "anonymous": false,
      "inputs": [
        {
          "indexed": true,
          "internalType": "address",
          "name": "owner",
          "type": "address"
        },
        {
          "indexed": true,
          "internalType": "address",
          "name": "approved",
          "type": "address"
        },
        {
          "indexed": true,
          "internalType": "uint256",
          "name": "tokenId",
          "type": "uint256"
        }
      ],
      "name": "Approval",
      "type": "event"
    },
    {
      "anonymous": false,
      "inputs": [
        {
          "indexed": true,
          "internalType": "address",
          "name": "owner",
          "type": "address"
        },
        {
          "indexed": true,
          "internalType": "address",
          "name": "operator",
          "type": "address"
        },
        {
          "indexed": false,
          "internalType": "bool",
          "name": "approved",
          "type": "bool"
        }
      ],
      "name": "ApprovalForAll",
      "type": "event"
    },
    {
      "anonymous": false,
      "inputs": [
        {
          "indexed": true,
          "internalType": "address",
          "name": "to",
          "type": "address"
        },
        {
          "indexed": false,
          "internalType": "uint256",
          "name": "tokenId",
          "type": "uint256"
        }
      ],
      "name": "Attest",
      "type": "event"
    },
    {
      "anonymous": false,
      "inputs": [
        {
          "indexed": true,
          "internalType": "address",
          "name": "to",
          "type": "address"
        },
        {
          "indexed": false,
          "internalType": "uint256",
          "name": "tokenId",
          "type": "uint256"
        }
      ],
      "name": "MarketTranfer",
      "type": "event"
    },
    {
      "anonymous": false,
      "inputs": [
        {
          "indexed": true,
          "internalType": "address",
          "name": "previousOwner",
          "type": "address"
        },
        {
          "indexed": true,
          "internalType": "address",
          "name": "newOwner",
          "type": "address"
        }
      ],
      "name": "OwnershipTransferred",
      "type": "event"
    },
    {
      "anonymous": false,
      "inputs": [
        {
          "indexed": true,
          "internalType": "address",
          "name": "to",
          "type": "address"
        },
        {
          "indexed": false,
          "internalType": "uint256",
          "name": "tokenId",
          "type": "uint256"
        }
      ],
      "name": "Revoke",
      "type": "event"
    },
    {
      "anonymous": false,
      "inputs": [
        {
          "indexed": true,
          "internalType": "address",
          "name": "from",
          "type": "address"
        },
        {
          "indexed": true,
          "internalType": "address",
          "name": "to",
          "type": "address"
        },
        {
          "indexed": true,
          "internalType": "uint256",
          "name": "tokenId",
          "type": "uint256"
        }
      ],
      "name": "Transfer",
      "type": "event"
    },
    {
      "anonymous": false,
      "inputs": [
        {
          "indexed": true,
          "internalType": "address",
          "name": "to",
          "type": "address"
        },
        {
          "indexed": false,
          "internalType": "uint256",
          "name": "tokenId",
          "type": "uint256"
        },
        {
          "indexed": false,
          "internalType": "string",
          "name": "tokenURI",
          "type": "string"
        },
        {
          "indexed": false,
          "internalType": "uint256",
          "name": "warrantyLengthInDays",
          "type": "uint256"
        }
      ],
      "name": "WarrantyCardMinted",
      "type": "event"
    },
    {
      "anonymous": false,
      "inputs": [
        {
          "indexed": false,
          "internalType": "uint256",
          "name": "tokenId",
          "type": "uint256"
        },
        {
          "indexed": true,
          "internalType": "address",
          "name": "to",
          "type": "address"
        }
      ],
      "name": "WarrantyCardTransferred",
      "type": "event"
    },
    {
      "anonymous": false,
      "inputs": [
        {
          "indexed": false,
          "internalType": "uint256",
          "name": "tokenId",
          "type": "uint256"
        },
        {
          "indexed": false,
          "internalType": "uint256",
          "name": "startTime",
          "type": "uint256"
        },
        {
          "indexed": false,
          "internalType": "uint256",
          "name": "length",
          "type": "uint256"
        }
      ],
      "name": "WarrantyPeriodStarted",
      "type": "event"
    },
    {
      "inputs": [
        {
          "internalType": "address",
          "name": "to",
          "type": "address"
        },
        {
          "internalType": "uint256",
          "name": "tokenId",
          "type": "uint256"
        }
      ],
      "name": "approve",
      "outputs": [],
      "stateMutability": "nonpayable",
      "type": "function"
    },
    {
      "inputs": [
        {
          "internalType": "address",
          "name": "owner",
          "type": "address"
        }
      ],
      "name": "balanceOf",
      "outputs": [
        {
          "internalType": "uint256",
          "name": "",
          "type": "uint256"
        }
      ],
      "stateMutability": "view",
      "type": "function"
    },
    {
      "inputs": [
        {
          "internalType": "uint256",
          "name": "tokenId",
          "type": "uint256"
        }
      ],
      "name": "burn",
      "outputs": [],
      "stateMutability": "nonpayable",
      "type": "function"
    },
    {
      "inputs": [
        {
          "internalType": "uint256",
          "name": "tokenId",
          "type": "uint256"
        }
      ],
      "name": "checkIfWarrantyIsOver",
      "outputs": [
        {
          "internalType": "uint256",
          "name": "",
          "type": "uint256"
        }
      ],
      "stateMutability": "view",
      "type": "function"
    },
    {
      "inputs": [
        {
          "internalType": "uint256",
          "name": "tokenId",
          "type": "uint256"
        }
      ],
      "name": "getApproved",
      "outputs": [
        {
          "internalType": "address",
          "name": "",
          "type": "address"
        }
      ],
      "stateMutability": "view",
      "type": "function"
    },
    {
      "inputs": [],
      "name": "getContractOwner",
      "outputs": [
        {
          "internalType": "address",
          "name": "",
          "type": "address"
        }
      ],
      "stateMutability": "view",
      "type": "function"
    },
    {
      "inputs": [
        {
          "internalType": "uint256",
          "name": "tokenId",
          "type": "uint256"
        }
      ],
      "name": "getWarrantyPeriod",
      "outputs": [
        {
          "internalType": "uint256",
          "name": "",
          "type": "uint256"
        }
      ],
      "stateMutability": "view",
      "type": "function"
    },
    {
      "inputs": [
        {
          "internalType": "uint256",
          "name": "tokenId",
          "type": "uint256"
        }
      ],
      "name": "hasWarrantyStarted",
      "outputs": [
        {
          "internalType": "bool",
          "name": "",
          "type": "bool"
        }
      ],
      "stateMutability": "view",
      "type": "function"
    },
    {
      "inputs": [
        {
          "internalType": "address",
          "name": "owner",
          "type": "address"
        },
        {
          "internalType": "address",
          "name": "operator",
          "type": "address"
        }
      ],
      "name": "isApprovedForAll",
      "outputs": [
        {
          "internalType": "bool",
          "name": "",
          "type": "bool"
        }
      ],
      "stateMutability": "view",
      "type": "function"
    },
    {
      "inputs": [
        {
          "internalType": "uint256",
          "name": "tokenId",
          "type": "uint256"
        }
      ],
      "name": "listForSale",
      "outputs": [],
      "stateMutability": "nonpayable",
      "type": "function"
    },
    {
      "inputs": [],
      "name": "name",
      "outputs": [
        {
          "internalType": "string",
          "name": "",
          "type": "string"
        }
      ],
      "stateMutability": "view",
      "type": "function"
    },
    {
      "inputs": [],
      "name": "owner",
      "outputs": [
        {
          "internalType": "address",
          "name": "",
          "type": "address"
        }
      ],
      "stateMutability": "view",
      "type": "function"
    },
    {
      "inputs": [
        {
          "internalType": "uint256",
          "name": "tokenId",
          "type": "uint256"
        }
      ],
      "name": "ownerOf",
      "outputs": [
        {
          "internalType": "address",
          "name": "",
          "type": "address"
        }
      ],
      "stateMutability": "view",
      "type": "function"
    },
    {
      "inputs": [],
      "name": "renounceOwnership",
      "outputs": [],
      "stateMutability": "nonpayable",
      "type": "function"
    },
    {
      "inputs": [
        {
          "internalType": "uint256",
          "name": "tokenId",
          "type": "uint256"
        },
        {
          "internalType": "address",
          "name": "to",
          "type": "address"
        }
      ],
      "name": "resale",
      "outputs": [],
      "stateMutability": "nonpayable",
      "type": "function"
    },
    {
      "inputs": [
        {
          "internalType": "address",
          "name": "to",
          "type": "address"
        },
        {
          "internalType": "string",
          "name": "ipfsHash",
          "type": "string"
        },
        {
          "internalType": "string",
          "name": "uri",
          "type": "string"
        },
        {
          "internalType": "uint256",
          "name": "warrantyLengthInDays",
          "type": "uint256"
        }
      ],
      "name": "safeMint",
      "outputs": [
        {
          "internalType": "uint256",
          "name": "",
          "type": "uint256"
        }
      ],
      "stateMutability": "nonpayable",
      "type": "function"
    },
    {
      "inputs": [
        {
          "internalType": "address",
          "name": "from",
          "type": "address"
        },
        {
          "internalType": "address",
          "name": "to",
          "type": "address"
        },
        {
          "internalType": "uint256",
          "name": "tokenId",
          "type": "uint256"
        }
      ],
      "name": "safeTransferFrom",
      "outputs": [],
      "stateMutability": "nonpayable",
      "type": "function"
    },
    {
      "inputs": [
        {
          "internalType": "address",
          "name": "from",
          "type": "address"
        },
        {
          "internalType": "address",
          "name": "to",
          "type": "address"
        },
        {
          "internalType": "uint256",
          "name": "tokenId",
          "type": "uint256"
        },
        {
          "internalType": "bytes",
          "name": "data",
          "type": "bytes"
        }
      ],
      "name": "safeTransferFrom",
      "outputs": [],
      "stateMutability": "nonpayable",
      "type": "function"
    },
    {
      "inputs": [
        {
          "internalType": "address",
          "name": "operator",
          "type": "address"
        },
        {
          "internalType": "bool",
          "name": "approved",
          "type": "bool"
        }
      ],
      "name": "setApprovalForAll",
      "outputs": [],
      "stateMutability": "nonpayable",
      "type": "function"
    },
    {
      "inputs": [
        {
          "internalType": "bytes4",
          "name": "interfaceId",
          "type": "bytes4"
        }
      ],
      "name": "supportsInterface",
      "outputs": [
        {
          "internalType": "bool",
          "name": "",
          "type": "bool"
        }
      ],
      "stateMutability": "view",
      "type": "function"
    },
    {
      "inputs": [],
      "name": "symbol",
      "outputs": [
        {
          "internalType": "string",
          "name": "",
          "type": "string"
        }
      ],
      "stateMutability": "view",
      "type": "function"
    },
    {
      "inputs": [
        {
          "internalType": "uint256",
          "name": "tokenId",
          "type": "uint256"
        }
      ],
      "name": "tokenURI",
      "outputs": [
        {
          "internalType": "string",
          "name": "",
          "type": "string"
        }
      ],
      "stateMutability": "view",
      "type": "function"
    },
    {
      "inputs": [],
      "name": "totalTokens",
      "outputs": [
        {
          "internalType": "uint256",
          "name": "",
          "type": "uint256"
        }
      ],
      "stateMutability": "view",
      "type": "function"
    },
    {
      "inputs": [
        {
          "internalType": "address",
          "name": "from",
          "type": "address"
        },
        {
          "internalType": "address",
          "name": "to",
          "type": "address"
        },
        {
          "internalType": "uint256",
          "name": "tokenId",
          "type": "uint256"
        }
      ],
      "name": "transferFrom",
      "outputs": [],
      "stateMutability": "nonpayable",
      "type": "function"
    },
    {
      "inputs": [
        {
          "internalType": "address",
          "name": "newOwner",
          "type": "address"
        }
      ],
      "name": "transferOwnership",
      "outputs": [],
      "stateMutability": "nonpayable",
      "type": "function"
    },
    {
      "inputs": [
        {
          "internalType": "string",
          "name": "",
          "type": "string"
        }
      ],
      "name": "warrantyCount",
      "outputs": [
        {
          "internalType": "uint256",
          "name": "",
          "type": "uint256"
        }
      ],
      "stateMutability": "view",
      "type": "function"
    }
  ],
  "bytecode": "0x60806040523480156200001157600080fd5b506040516200465938038062004659833981810160405281019062000037919062000498565b8282816000908051906020019062000051929190620001e6565b5080600190805190602001906200006a929190620001e6565b5050506200008d620000816200011860201b60201c565b6200012060201b60201c565b80600960006101000a81548173ffffffffffffffffffffffffffffffffffffffff021916908373ffffffffffffffffffffffffffffffffffffffff16021790555033600a60006101000a81548173ffffffffffffffffffffffffffffffffffffffff021916908373ffffffffffffffffffffffffffffffffffffffff16021790555050505062000597565b600033905090565b6000600760009054906101000a900473ffffffffffffffffffffffffffffffffffffffff16905081600760006101000a81548173ffffffffffffffffffffffffffffffffffffffff021916908373ffffffffffffffffffffffffffffffffffffffff1602179055508173ffffffffffffffffffffffffffffffffffffffff168173ffffffffffffffffffffffffffffffffffffffff167f8be0079c531659141344cd1fd0a4f28419497f9722a3daafe3b4186f6b6457e060405160405180910390a35050565b828054620001f49062000561565b90600052602060002090601f01602090048101928262000218576000855562000264565b82601f106200023357805160ff191683800117855562000264565b8280016001018555821562000264579182015b828111156200026357825182559160200191906001019062000246565b5b50905062000273919062000277565b5090565b5b808211156200029257600081600090555060010162000278565b5090565b6000604051905090565b600080fd5b600080fd5b600080fd5b600080fd5b6000601f19601f8301169050919050565b7f4e487b7100000000000000000000000000000000000000000000000000000000600052604160045260246000fd5b620002ff82620002b4565b810181811067ffffffffffffffff82111715620003215762000320620002c5565b5b80604052505050565b60006200033662000296565b9050620003448282620002f4565b919050565b600067ffffffffffffffff821115620003675762000366620002c5565b5b6200037282620002b4565b9050602081019050919050565b60005b838110156200039f57808201518184015260208101905062000382565b83811115620003af576000848401525b50505050565b6000620003cc620003c68462000349565b6200032a565b905082815260208101848484011115620003eb57620003ea620002af565b5b620003f88482856200037f565b509392505050565b600082601f830112620004185762000417620002aa565b5b81516200042a848260208601620003b5565b91505092915050565b600073ffffffffffffffffffffffffffffffffffffffff82169050919050565b6000620004608262000433565b9050919050565b620004728162000453565b81146200047e57600080fd5b50565b600081519050620004928162000467565b92915050565b600080600060608486031215620004b457620004b3620002a0565b5b600084015167ffffffffffffffff811115620004d557620004d4620002a5565b5b620004e38682870162000400565b935050602084015167ffffffffffffffff811115620005075762000506620002a5565b5b620005158682870162000400565b9250506040620005288682870162000481565b9150509250925092565b7f4e487b7100000000000000000000000000000000000000000000000000000000600052602260045260246000fd5b600060028204905060018216806200057a57607f821691505b6020821081141562000591576200059062000532565b5b50919050565b6140b280620005a76000396000f3fe608060405234801561001057600080fd5b506004361061018e5760003560e01c80638da5cb5b116100de578063c7857fb511610097578063e985e9c511610071578063e985e9c514610493578063f13b9db3146104c3578063f2fde38b146104f3578063f7feb46e1461050f5761018e565b8063c7857fb514610417578063c87b56dd14610433578063dfff74d9146104635761018e565b80638da5cb5b1461034357806395d89b4114610361578063a22cb4651461037f578063b43547831461039b578063b88d4fde146103cb578063bfb5b620146103e75761018e565b806342966c681161014b57806370a082311161012557806370a08231146102cf578063715018a6146102ff5780637e1c0c091461030957806384030e8f146103275761018e565b806342966c6814610265578063442890d5146102815780636352211e1461029f5761018e565b806301ffc9a71461019357806306fdde03146101c3578063081812fc146101e1578063095ea7b31461021157806323b872dd1461022d57806342842e0e14610249575b600080fd5b6101ad60048036038101906101a89190612948565b61053f565b6040516101ba9190612990565b60405180910390f35b6101cb610621565b6040516101d89190612a44565b60405180910390f35b6101fb60048036038101906101f69190612a9c565b6106b3565b6040516102089190612b0a565b60405180910390f35b61022b60048036038101906102269190612b51565b6106f9565b005b61024760048036038101906102429190612b91565b610811565b005b610263600480360381019061025e9190612b91565b610871565b005b61027f600480360381019061027a9190612a9c565b610891565b005b6102896108ed565b6040516102969190612b0a565b60405180910390f35b6102b960048036038101906102b49190612a9c565b610917565b6040516102c69190612b0a565b60405180910390f35b6102e960048036038101906102e49190612be4565b6109c9565b6040516102f69190612c20565b60405180910390f35b610307610a81565b005b610311610a95565b60405161031e9190612c20565b60405180910390f35b610341600480360381019061033c9190612c3b565b610aa6565b005b61034b610bc5565b6040516103589190612b0a565b60405180910390f35b610369610bef565b6040516103769190612a44565b60405180910390f35b61039960048036038101906103949190612ca7565b610c81565b005b6103b560048036038101906103b09190612a9c565b610c97565b6040516103c29190612990565b60405180910390f35b6103e560048036038101906103e09190612e1c565b610cc1565b005b61040160048036038101906103fc9190612f40565b610d23565b60405161040e9190612c20565b60405180910390f35b610431600480360381019061042c9190612a9c565b610f6b565b005b61044d60048036038101906104489190612a9c565b611071565b60405161045a9190612a44565b60405180910390f35b61047d60048036038101906104789190612a9c565b611083565b60405161048a9190612c20565b60405180910390f35b6104ad60048036038101906104a89190612fdf565b611209565b6040516104ba9190612990565b60405180910390f35b6104dd60048036038101906104d8919061301f565b61129d565b6040516104ea9190612c20565b60405180910390f35b61050d60048036038101906105089190612be4565b6112cb565b005b61052960048036038101906105249190612a9c565b61134f565b6040516105369190612c20565b60405180910390f35b60007f80ac58cd000000000000000000000000000000000000000000000000000000007bffffffffffffffffffffffffffffffffffffffffffffffffffffffff1916827bffffffffffffffffffffffffffffffffffffffffffffffffffffffff1916148061060a57507f5b5e139f000000000000000000000000000000000000000000000000000000007bffffffffffffffffffffffffffffffffffffffffffffffffffffffff1916827bffffffffffffffffffffffffffffffffffffffffffffffffffffffff1916145b8061061a57506106198261136f565b5b9050919050565b60606000805461063090613097565b80601f016020809104026020016040519081016040528092919081815260200182805461065c90613097565b80156106a95780601f1061067e576101008083540402835291602001916106a9565b820191906000526020600020905b81548152906001019060200180831161068c57829003601f168201915b5050505050905090565b60006106be826113d9565b6004600083815260200190815260200160002060009054906101000a900473ffffffffffffffffffffffffffffffffffffffff169050919050565b600061070482610917565b90508073ffffffffffffffffffffffffffffffffffffffff168373ffffffffffffffffffffffffffffffffffffffff161415610775576040517f08c379a000000000000000000000000000000000000000000000000000000000815260040161076c9061313b565b60405180910390fd5b8073ffffffffffffffffffffffffffffffffffffffff16610794611424565b73ffffffffffffffffffffffffffffffffffffffff1614806107c357506107c2816107bd611424565b611209565b5b610802576040517f08c379a00000000000000000000000000000000000000000000000000000000081526004016107f9906131cd565b60405180910390fd5b61080c838361142c565b505050565b61082261081c611424565b826114e5565b610861576040517f08c379a00000000000000000000000000000000000000000000000000000000081526004016108589061325f565b60405180910390fd5b61086c83838361157a565b505050565b61088c83838360405180602001604052806000815250610cc1565b505050565b6108a261089c611424565b826114e5565b6108e1576040517f08c379a00000000000000000000000000000000000000000000000000000000081526004016108d89061325f565b60405180910390fd5b6108ea8161180c565b50565b6000600a60009054906101000a900473ffffffffffffffffffffffffffffffffffffffff16905090565b6000806002600084815260200190815260200160002060009054906101000a900473ffffffffffffffffffffffffffffffffffffffff169050600073ffffffffffffffffffffffffffffffffffffffff168173ffffffffffffffffffffffffffffffffffffffff1614156109c0576040517f08c379a00000000000000000000000000000000000000000000000000000000081526004016109b7906132cb565b60405180910390fd5b80915050919050565b60008073ffffffffffffffffffffffffffffffffffffffff168273ffffffffffffffffffffffffffffffffffffffff161415610a3a576040517f08c379a0000000000000000000000000000000000000000000000000000000008152600401610a319061335d565b60405180910390fd5b600360008373ffffffffffffffffffffffffffffffffffffffff1673ffffffffffffffffffffffffffffffffffffffff168152602001908152602001600020549050919050565b610a8961188e565b610a93600061190c565b565b6000610aa160086119d2565b905090565b610aae61188e565b610ab860086119d2565b8210610af9576040517f08c379a0000000000000000000000000000000000000000000000000000000008152600401610af0906133c9565b60405180910390fd5b60011515600d600084815260200190815260200160002060009054906101000a900460ff16151514610b60576040517f08c379a0000000000000000000000000000000000000000000000000000000008152600401610b579061345b565b60405180910390fd5b610b73610b6c83610917565b828461157a565b8073ffffffffffffffffffffffffffffffffffffffff167fa8222b9fd5c3e60a3fbd169fe5aa2186a0beaec0e89e87bcf799fac32427af7e83604051610bb99190612c20565b60405180910390a25050565b6000600760009054906101000a900473ffffffffffffffffffffffffffffffffffffffff16905090565b606060018054610bfe90613097565b80601f0160208091040260200160405190810160405280929190818152602001828054610c2a90613097565b8015610c775780601f10610c4c57610100808354040283529160200191610c77565b820191906000526020600020905b815481529060010190602001808311610c5a57829003601f168201915b5050505050905090565b610c93610c8c611424565b83836119e0565b5050565b6000600c600083815260200190815260200160002060009054906101000a900460ff169050919050565b610cd2610ccc611424565b836114e5565b610d11576040517f08c379a0000000000000000000000000000000000000000000000000000000008152600401610d089061325f565b60405180910390fd5b610d1d84848484611b4d565b50505050565b6000610d2d61188e565b6001600b85604051610d3f91906134b7565b9081526020016040518091039020541415610d8f576040517f08c379a0000000000000000000000000000000000000000000000000000000008152600401610d869061351a565b60405180910390fd5b6001600b85604051610da191906134b7565b9081526020016040518091039020819055506000610dbf60086119d2565b9050610dcb6008611ba9565b610dd58682611bbf565b610ddf8185611bdd565b60006201518084610df09190613569565b905060405180604001604052806000815260200182815250600e600084815260200190815260200160002060008201518160000155602082015181600101559050506001600c600084815260200190815260200160002060006101000a81548160ff0219169083151502179055506000600d600084815260200190815260200160002060006101000a81548160ff02191690831515021790555042600e6000848152602001908152602001600020600001819055508673ffffffffffffffffffffffffffffffffffffffff167fe74fc9f33fe352e41bbf181a53a0117fc48d9d1a56eea28352f8528f797289df838787604051610eef939291906135c3565b60405180910390a27fe851f6d961bd7405ec686024d7a5547aef41cb5b617307a494d67bdb2434e9c782600e600085815260200190815260200160002060000154600e600086815260200190815260200160002060010154604051610f5693929190613601565b60405180910390a18192505050949350505050565b610f7481610917565b73ffffffffffffffffffffffffffffffffffffffff163373ffffffffffffffffffffffffffffffffffffffff1614610fe1576040517f08c379a0000000000000000000000000000000000000000000000000000000008152600401610fd8906136aa565b60405180910390fd5b600d600082815260200190815260200160002060009054906101000a900460ff1615611042576040517f08c379a00000000000000000000000000000000000000000000000000000000081526004016110399061373c565b60405180910390fd5b6001600d600083815260200190815260200160002060006101000a81548160ff02191690831515021790555050565b606061107c82611c51565b9050919050565b600060011515600c600084815260200190815260200160002060009054906101000a900460ff161515146110ec576040517f08c379a00000000000000000000000000000000000000000000000000000000081526004016110e3906137a8565b60405180910390fd5b6000600e6000848152602001908152602001600020600001541415611146576040517f08c379a000000000000000000000000000000000000000000000000000000000815260040161113d906137a8565b60405180910390fd5b6000600e60008481526020019081526020016000206001015414156111a0576040517f08c379a000000000000000000000000000000000000000000000000000000000815260040161119790613814565b60405180910390fd5b6000600e60008481526020019081526020016000206000015490506000600e600085815260200190815260200160002060010154905080826111e29190613834565b42106111f357600092505050611204565b81426111ff919061388a565b925050505b919050565b6000600560008473ffffffffffffffffffffffffffffffffffffffff1673ffffffffffffffffffffffffffffffffffffffff16815260200190815260200160002060008373ffffffffffffffffffffffffffffffffffffffff1673ffffffffffffffffffffffffffffffffffffffff16815260200190815260200160002060009054906101000a900460ff16905092915050565b600b818051602081018201805184825260208301602085012081835280955050505050506000915090505481565b6112d361188e565b600073ffffffffffffffffffffffffffffffffffffffff168173ffffffffffffffffffffffffffffffffffffffff161415611343576040517f08c379a000000000000000000000000000000000000000000000000000000000815260040161133a90613930565b60405180910390fd5b61134c8161190c565b50565b6000600e6000838152602001908152602001600020600101549050919050565b60007f01ffc9a7000000000000000000000000000000000000000000000000000000007bffffffffffffffffffffffffffffffffffffffffffffffffffffffff1916827bffffffffffffffffffffffffffffffffffffffffffffffffffffffff1916149050919050565b6113e281611d64565b611421576040517f08c379a0000000000000000000000000000000000000000000000000000000008152600401611418906132cb565b60405180910390fd5b50565b600033905090565b816004600083815260200190815260200160002060006101000a81548173ffffffffffffffffffffffffffffffffffffffff021916908373ffffffffffffffffffffffffffffffffffffffff160217905550808273ffffffffffffffffffffffffffffffffffffffff1661149f83610917565b73ffffffffffffffffffffffffffffffffffffffff167f8c5be1e5ebec7d5bd14f71427d1e84f3dd0314c0f7b2291e5b200ac8c7c3b92560405160405180910390a45050565b6000806114f183610917565b90508073ffffffffffffffffffffffffffffffffffffffff168473ffffffffffffffffffffffffffffffffffffffff16148061153357506115328185611209565b5b8061157157508373ffffffffffffffffffffffffffffffffffffffff16611559846106b3565b73ffffffffffffffffffffffffffffffffffffffff16145b91505092915050565b8273ffffffffffffffffffffffffffffffffffffffff1661159a82610917565b73ffffffffffffffffffffffffffffffffffffffff16146115f0576040517f08c379a00000000000000000000000000000000000000000000000000000000081526004016115e7906139c2565b60405180910390fd5b600073ffffffffffffffffffffffffffffffffffffffff168273ffffffffffffffffffffffffffffffffffffffff161415611660576040517f08c379a000000000000000000000000000000000000000000000000000000000815260040161165790613a54565b60405180910390fd5b61166b838383611dd0565b6004600082815260200190815260200160002060006101000a81549073ffffffffffffffffffffffffffffffffffffffff02191690556001600360008573ffffffffffffffffffffffffffffffffffffffff1673ffffffffffffffffffffffffffffffffffffffff16815260200190815260200160002060008282546116f1919061388a565b925050819055506001600360008473ffffffffffffffffffffffffffffffffffffffff1673ffffffffffffffffffffffffffffffffffffffff16815260200190815260200160002060008282546117489190613834565b92505081905550816002600083815260200190815260200160002060006101000a81548173ffffffffffffffffffffffffffffffffffffffff021916908373ffffffffffffffffffffffffffffffffffffffff160217905550808273ffffffffffffffffffffffffffffffffffffffff168473ffffffffffffffffffffffffffffffffffffffff167fddf252ad1be2c89b69c2b068fc378daa952ba7f163c4a11628f55a4df523b3ef60405160405180910390a4611807838383611ed3565b505050565b3373ffffffffffffffffffffffffffffffffffffffff1661182c82610917565b73ffffffffffffffffffffffffffffffffffffffff1614611882576040517f08c379a000000000000000000000000000000000000000000000000000000000815260040161187990613ae6565b60405180910390fd5b61188b8161208f565b50565b611896611424565b73ffffffffffffffffffffffffffffffffffffffff166118b4610bc5565b73ffffffffffffffffffffffffffffffffffffffff161461190a576040517f08c379a000000000000000000000000000000000000000000000000000000000815260040161190190613b52565b60405180910390fd5b565b6000600760009054906101000a900473ffffffffffffffffffffffffffffffffffffffff16905081600760006101000a81548173ffffffffffffffffffffffffffffffffffffffff021916908373ffffffffffffffffffffffffffffffffffffffff1602179055508173ffffffffffffffffffffffffffffffffffffffff168173ffffffffffffffffffffffffffffffffffffffff167f8be0079c531659141344cd1fd0a4f28419497f9722a3daafe3b4186f6b6457e060405160405180910390a35050565b600081600001549050919050565b8173ffffffffffffffffffffffffffffffffffffffff168373ffffffffffffffffffffffffffffffffffffffff161415611a4f576040517f08c379a0000000000000000000000000000000000000000000000000000000008152600401611a4690613bbe565b60405180910390fd5b80600560008573ffffffffffffffffffffffffffffffffffffffff1673ffffffffffffffffffffffffffffffffffffffff16815260200190815260200160002060008473ffffffffffffffffffffffffffffffffffffffff1673ffffffffffffffffffffffffffffffffffffffff16815260200190815260200160002060006101000a81548160ff0219169083151502179055508173ffffffffffffffffffffffffffffffffffffffff168373ffffffffffffffffffffffffffffffffffffffff167f17307eab39ab6107e8899845ad3d59bd9653f200f220920489ca2b5937696c3183604051611b409190612990565b60405180910390a3505050565b611b5884848461157a565b611b64848484846120e2565b611ba3576040517f08c379a0000000000000000000000000000000000000000000000000000000008152600401611b9a90613c50565b60405180910390fd5b50505050565b6001816000016000828254019250508190555050565b611bd9828260405180602001604052806000815250612279565b5050565b611be682611d64565b611c25576040517f08c379a0000000000000000000000000000000000000000000000000000000008152600401611c1c90613ce2565b60405180910390fd5b80600660008481526020019081526020016000209080519060200190611c4c9291906127f9565b505050565b6060611c5c826113d9565b6000600660008481526020019081526020016000208054611c7c90613097565b80601f0160208091040260200160405190810160405280929190818152602001828054611ca890613097565b8015611cf55780601f10611cca57610100808354040283529160200191611cf5565b820191906000526020600020905b815481529060010190602001808311611cd857829003601f168201915b505050505090506000611d066122d4565b9050600081511415611d1c578192505050611d5f565b600082511115611d51578082604051602001611d39929190613d02565b60405160208183030381529060405292505050611d5f565b611d5a846122eb565b925050505b919050565b60008073ffffffffffffffffffffffffffffffffffffffff166002600084815260200190815260200160002060009054906101000a900473ffffffffffffffffffffffffffffffffffffffff1673ffffffffffffffffffffffffffffffffffffffff1614159050919050565b600073ffffffffffffffffffffffffffffffffffffffff168373ffffffffffffffffffffffffffffffffffffffff161480611e375750600073ffffffffffffffffffffffffffffffffffffffff168273ffffffffffffffffffffffffffffffffffffffff16145b80611e8f5750600a60009054906101000a900473ffffffffffffffffffffffffffffffffffffffff1673ffffffffffffffffffffffffffffffffffffffff163373ffffffffffffffffffffffffffffffffffffffff16145b611ece576040517f08c379a0000000000000000000000000000000000000000000000000000000008152600401611ec590613d98565b60405180910390fd5b505050565b600073ffffffffffffffffffffffffffffffffffffffff168373ffffffffffffffffffffffffffffffffffffffff161415611f5b578173ffffffffffffffffffffffffffffffffffffffff167fe9274a84b19e9428826de6bae8c48329354f8f0e73f771b97cae2d9dccd45a2782604051611f4e9190612c20565b60405180910390a261208a565b600073ffffffffffffffffffffffffffffffffffffffff168273ffffffffffffffffffffffffffffffffffffffff161415611fe3578173ffffffffffffffffffffffffffffffffffffffff167fec9ab91322523c899ede7830ec9bfc992b5981cdcc27b91162fb23de5791117b82604051611fd69190612c20565b60405180910390a2612089565b600960009054906101000a900473ffffffffffffffffffffffffffffffffffffffff1673ffffffffffffffffffffffffffffffffffffffff168273ffffffffffffffffffffffffffffffffffffffff161415612088578173ffffffffffffffffffffffffffffffffffffffff167ff983e481073a525b2d329c185cde64cafdecf79fc1d9332fba5828c09289e4868260405161207f9190612c20565b60405180910390a25b5b5b505050565b61209881612353565b60006006600083815260200190815260200160002080546120b890613097565b9050146120df576006600082815260200190815260200160002060006120de919061287f565b5b50565b60006121038473ffffffffffffffffffffffffffffffffffffffff1661249b565b1561226c578373ffffffffffffffffffffffffffffffffffffffff1663150b7a0261212c611424565b8786866040518563ffffffff1660e01b815260040161214e9493929190613e0d565b602060405180830381600087803b15801561216857600080fd5b505af192505050801561219957506040513d601f19601f820116820180604052508101906121969190613e6e565b60015b61221c573d80600081146121c9576040519150601f19603f3d011682016040523d82523d6000602084013e6121ce565b606091505b50600081511415612214576040517f08c379a000000000000000000000000000000000000000000000000000000000815260040161220b90613c50565b60405180910390fd5b805181602001fd5b63150b7a0260e01b7bffffffffffffffffffffffffffffffffffffffffffffffffffffffff1916817bffffffffffffffffffffffffffffffffffffffffffffffffffffffff191614915050612271565b600190505b949350505050565b61228383836124be565b61229060008484846120e2565b6122cf576040517f08c379a00000000000000000000000000000000000000000000000000000000081526004016122c690613c50565b60405180910390fd5b505050565b606060405180602001604052806000815250905090565b60606122f6826113d9565b60006123006122d4565b90506000815111612320576040518060200160405280600081525061234b565b8061232a84612698565b60405160200161233b929190613d02565b6040516020818303038152906040525b915050919050565b600061235e82610917565b905061236c81600084611dd0565b6004600083815260200190815260200160002060006101000a81549073ffffffffffffffffffffffffffffffffffffffff02191690556001600360008373ffffffffffffffffffffffffffffffffffffffff1673ffffffffffffffffffffffffffffffffffffffff16815260200190815260200160002060008282546123f2919061388a565b925050819055506002600083815260200190815260200160002060006101000a81549073ffffffffffffffffffffffffffffffffffffffff021916905581600073ffffffffffffffffffffffffffffffffffffffff168273ffffffffffffffffffffffffffffffffffffffff167fddf252ad1be2c89b69c2b068fc378daa952ba7f163c4a11628f55a4df523b3ef60405160405180910390a461249781600084611ed3565b5050565b6000808273ffffffffffffffffffffffffffffffffffffffff163b119050919050565b600073ffffffffffffffffffffffffffffffffffffffff168273ffffffffffffffffffffffffffffffffffffffff16141561252e576040517f08c379a000000000000000000000000000000000000000000000000000000000815260040161252590613ee7565b60405180910390fd5b61253781611d64565b15612577576040517f08c379a000000000000000000000000000000000000000000000000000000000815260040161256e90613f53565b60405180910390fd5b61258360008383611dd0565b6001600360008473ffffffffffffffffffffffffffffffffffffffff1673ffffffffffffffffffffffffffffffffffffffff16815260200190815260200160002060008282546125d39190613834565b92505081905550816002600083815260200190815260200160002060006101000a81548173ffffffffffffffffffffffffffffffffffffffff021916908373ffffffffffffffffffffffffffffffffffffffff160217905550808273ffffffffffffffffffffffffffffffffffffffff16600073ffffffffffffffffffffffffffffffffffffffff167fddf252ad1be2c89b69c2b068fc378daa952ba7f163c4a11628f55a4df523b3ef60405160405180910390a461269460008383611ed3565b5050565b606060008214156126e0576040518060400160405280600181526020017f300000000000000000000000000000000000000000000000000000000000000081525090506127f4565b600082905060005b600082146127125780806126fb90613f73565b915050600a8261270b9190613feb565b91506126e8565b60008167ffffffffffffffff81111561272e5761272d612cf1565b5b6040519080825280601f01601f1916602001820160405280156127605781602001600182028036833780820191505090505b5090505b600085146127ed57600182612779919061388a565b9150600a85612788919061401c565b60306127949190613834565b60f81b8183815181106127aa576127a961404d565b5b60200101907effffffffffffffffffffffffffffffffffffffffffffffffffffffffffffff1916908160001a905350600a856127e69190613feb565b9450612764565b8093505050505b919050565b82805461280590613097565b90600052602060002090601f016020900481019282612827576000855561286e565b82601f1061284057805160ff191683800117855561286e565b8280016001018555821561286e579182015b8281111561286d578251825591602001919060010190612852565b5b50905061287b91906128bf565b5090565b50805461288b90613097565b6000825580601f1061289d57506128bc565b601f0160209004906000526020600020908101906128bb91906128bf565b5b50565b5b808211156128d85760008160009055506001016128c0565b5090565b6000604051905090565b600080fd5b600080fd5b60007fffffffff0000000000000000000000000000000000000000000000000000000082169050919050565b612925816128f0565b811461293057600080fd5b50565b6000813590506129428161291c565b92915050565b60006020828403121561295e5761295d6128e6565b5b600061296c84828501612933565b91505092915050565b60008115159050919050565b61298a81612975565b82525050565b60006020820190506129a56000830184612981565b92915050565b600081519050919050565b600082825260208201905092915050565b60005b838110156129e55780820151818401526020810190506129ca565b838111156129f4576000848401525b50505050565b6000601f19601f8301169050919050565b6000612a16826129ab565b612a2081856129b6565b9350612a308185602086016129c7565b612a39816129fa565b840191505092915050565b60006020820190508181036000830152612a5e8184612a0b565b905092915050565b6000819050919050565b612a7981612a66565b8114612a8457600080fd5b50565b600081359050612a9681612a70565b92915050565b600060208284031215612ab257612ab16128e6565b5b6000612ac084828501612a87565b91505092915050565b600073ffffffffffffffffffffffffffffffffffffffff82169050919050565b6000612af482612ac9565b9050919050565b612b0481612ae9565b82525050565b6000602082019050612b1f6000830184612afb565b92915050565b612b2e81612ae9565b8114612b3957600080fd5b50565b600081359050612b4b81612b25565b92915050565b60008060408385031215612b6857612b676128e6565b5b6000612b7685828601612b3c565b9250506020612b8785828601612a87565b9150509250929050565b600080600060608486031215612baa57612ba96128e6565b5b6000612bb886828701612b3c565b9350506020612bc986828701612b3c565b9250506040612bda86828701612a87565b9150509250925092565b600060208284031215612bfa57612bf96128e6565b5b6000612c0884828501612b3c565b91505092915050565b612c1a81612a66565b82525050565b6000602082019050612c356000830184612c11565b92915050565b60008060408385031215612c5257612c516128e6565b5b6000612c6085828601612a87565b9250506020612c7185828601612b3c565b9150509250929050565b612c8481612975565b8114612c8f57600080fd5b50565b600081359050612ca181612c7b565b92915050565b60008060408385031215612cbe57612cbd6128e6565b5b6000612ccc85828601612b3c565b9250506020612cdd85828601612c92565b9150509250929050565b600080fd5b600080fd5b7f4e487b7100000000000000000000000000000000000000000000000000000000600052604160045260246000fd5b612d29826129fa565b810181811067ffffffffffffffff82111715612d4857612d47612cf1565b5b80604052505050565b6000612d5b6128dc565b9050612d678282612d20565b919050565b600067ffffffffffffffff821115612d8757612d86612cf1565b5b612d90826129fa565b9050602081019050919050565b82818337600083830152505050565b6000612dbf612dba84612d6c565b612d51565b905082815260208101848484011115612ddb57612dda612cec565b5b612de6848285612d9d565b509392505050565b600082601f830112612e0357612e02612ce7565b5b8135612e13848260208601612dac565b91505092915050565b60008060008060808587031215612e3657612e356128e6565b5b6000612e4487828801612b3c565b9450506020612e5587828801612b3c565b9350506040612e6687828801612a87565b925050606085013567ffffffffffffffff811115612e8757612e866128eb565b5b612e9387828801612dee565b91505092959194509250565b600067ffffffffffffffff821115612eba57612eb9612cf1565b5b612ec3826129fa565b9050602081019050919050565b6000612ee3612ede84612e9f565b612d51565b905082815260208101848484011115612eff57612efe612cec565b5b612f0a848285612d9d565b509392505050565b600082601f830112612f2757612f26612ce7565b5b8135612f37848260208601612ed0565b91505092915050565b60008060008060808587031215612f5a57612f596128e6565b5b6000612f6887828801612b3c565b945050602085013567ffffffffffffffff811115612f8957612f886128eb565b5b612f9587828801612f12565b935050604085013567ffffffffffffffff811115612fb657612fb56128eb565b5b612fc287828801612f12565b9250506060612fd387828801612a87565b91505092959194509250565b60008060408385031215612ff657612ff56128e6565b5b600061300485828601612b3c565b925050602061301585828601612b3c565b9150509250929050565b600060208284031215613035576130346128e6565b5b600082013567ffffffffffffffff811115613053576130526128eb565b5b61305f84828501612f12565b91505092915050565b7f4e487b7100000000000000000000000000000000000000000000000000000000600052602260045260246000fd5b600060028204905060018216806130af57607f821691505b602082108114156130c3576130c2613068565b5b50919050565b7f4552433732313a20617070726f76616c20746f2063757272656e74206f776e6560008201527f7200000000000000000000000000000000000000000000000000000000000000602082015250565b60006131256021836129b6565b9150613130826130c9565b604082019050919050565b6000602082019050818103600083015261315481613118565b9050919050565b7f4552433732313a20617070726f76652063616c6c6572206973206e6f7420746f60008201527f6b656e206f776e6572206e6f7220617070726f76656420666f7220616c6c0000602082015250565b60006131b7603e836129b6565b91506131c28261315b565b604082019050919050565b600060208201905081810360008301526131e6816131aa565b9050919050565b7f4552433732313a2063616c6c6572206973206e6f7420746f6b656e206f776e6560008201527f72206e6f7220617070726f766564000000000000000000000000000000000000602082015250565b6000613249602e836129b6565b9150613254826131ed565b604082019050919050565b600060208201905081810360008301526132788161323c565b9050919050565b7f4552433732313a20696e76616c696420746f6b656e2049440000000000000000600082015250565b60006132b56018836129b6565b91506132c08261327f565b602082019050919050565b600060208201905081810360008301526132e4816132a8565b9050919050565b7f4552433732313a2061646472657373207a65726f206973206e6f74206120766160008201527f6c6964206f776e65720000000000000000000000000000000000000000000000602082015250565b60006133476029836129b6565b9150613352826132eb565b604082019050919050565b600060208201905081810360008301526133768161333a565b9050919050565b7f57617272616e74793a20746f6b656e204964206973206e6f742076616c696400600082015250565b60006133b3601f836129b6565b91506133be8261337d565b602082019050919050565b600060208201905081810360008301526133e2816133a6565b9050919050565b7f57617272616e74793a20746f6b656e206973206e6f74206f757420666f72207360008201527f616c650000000000000000000000000000000000000000000000000000000000602082015250565b60006134456023836129b6565b9150613450826133e9565b604082019050919050565b6000602082019050818103600083015261347481613438565b9050919050565b600081905092915050565b6000613491826129ab565b61349b818561347b565b93506134ab8185602086016129c7565b80840191505092915050565b60006134c38284613486565b915081905092915050565b7f57617272616e74793a20616c7265616479206d696e7465640000000000000000600082015250565b60006135046018836129b6565b915061350f826134ce565b602082019050919050565b60006020820190508181036000830152613533816134f7565b9050919050565b7f4e487b7100000000000000000000000000000000000000000000000000000000600052601160045260246000fd5b600061357482612a66565b915061357f83612a66565b9250817fffffffffffffffffffffffffffffffffffffffffffffffffffffffffffffffff04831182151516156135b8576135b761353a565b5b828202905092915050565b60006060820190506135d86000830186612c11565b81810360208301526135ea8185612a0b565b90506135f96040830184612c11565b949350505050565b60006060820190506136166000830186612c11565b6136236020830185612c11565b6136306040830184612c11565b949350505050565b7f57617272616e74793a2063616c6c6572206973206e6f7420746865206f776e6560008201527f7200000000000000000000000000000000000000000000000000000000000000602082015250565b60006136946021836129b6565b915061369f82613638565b604082019050919050565b600060208201905081810360008301526136c381613687565b9050919050565b7f57617272616e74793a20616c7265616479206c697374656420666f722073616c60008201527f6500000000000000000000000000000000000000000000000000000000000000602082015250565b60006137266021836129b6565b9150613731826136ca565b604082019050919050565b6000602082019050818103600083015261375581613719565b9050919050565b7f57617272616e747920686173206e6f7420737461727465640000000000000000600082015250565b60006137926018836129b6565b915061379d8261375c565b602082019050919050565b600060208201905081810360008301526137c181613785565b9050919050565b7f57617272616e747920706572696f642063616e6e6f7420626520302e00000000600082015250565b60006137fe601c836129b6565b9150613809826137c8565b602082019050919050565b6000602082019050818103600083015261382d816137f1565b9050919050565b600061383f82612a66565b915061384a83612a66565b9250827fffffffffffffffffffffffffffffffffffffffffffffffffffffffffffffffff0382111561387f5761387e61353a565b5b828201905092915050565b600061389582612a66565b91506138a083612a66565b9250828210156138b3576138b261353a565b5b828203905092915050565b7f4f776e61626c653a206e6577206f776e657220697320746865207a65726f206160008201527f6464726573730000000000000000000000000000000000000000000000000000602082015250565b600061391a6026836129b6565b9150613925826138be565b604082019050919050565b600060208201905081810360008301526139498161390d565b9050919050565b7f4552433732313a207472616e736665722066726f6d20696e636f72726563742060008201527f6f776e6572000000000000000000000000000000000000000000000000000000602082015250565b60006139ac6025836129b6565b91506139b782613950565b604082019050919050565b600060208201905081810360008301526139db8161399f565b9050919050565b7f4552433732313a207472616e7366657220746f20746865207a65726f2061646460008201527f7265737300000000000000000000000000000000000000000000000000000000602082015250565b6000613a3e6024836129b6565b9150613a49826139e2565b604082019050919050565b60006020820190508181036000830152613a6d81613a31565b9050919050565b7f4f6e6c7920746f6b656e206f776e65722063616e206275726e2074686569722060008201527f746f6b656e2e0000000000000000000000000000000000000000000000000000602082015250565b6000613ad06026836129b6565b9150613adb82613a74565b604082019050919050565b60006020820190508181036000830152613aff81613ac3565b9050919050565b7f4f776e61626c653a2063616c6c6572206973206e6f7420746865206f776e6572600082015250565b6000613b3c6020836129b6565b9150613b4782613b06565b602082019050919050565b60006020820190508181036000830152613b6b81613b2f565b9050919050565b7f4552433732313a20617070726f766520746f2063616c6c657200000000000000600082015250565b6000613ba86019836129b6565b9150613bb382613b72565b602082019050919050565b60006020820190508181036000830152613bd781613b9b565b9050919050565b7f4552433732313a207472616e7366657220746f206e6f6e20455243373231526560008201527f63656976657220696d706c656d656e7465720000000000000000000000000000602082015250565b6000613c3a6032836129b6565b9150613c4582613bde565b604082019050919050565b60006020820190508181036000830152613c6981613c2d565b9050919050565b7f45524337323155524953746f726167653a2055524920736574206f66206e6f6e60008201527f6578697374656e7420746f6b656e000000000000000000000000000000000000602082015250565b6000613ccc602e836129b6565b9150613cd782613c70565b604082019050919050565b60006020820190508181036000830152613cfb81613cbf565b9050919050565b6000613d0e8285613486565b9150613d1a8284613486565b91508190509392505050565b7f57617272616e74793a2043616e6e6f74207472616e736665722074686973207460008201527f6f6b656e2e000000000000000000000000000000000000000000000000000000602082015250565b6000613d826025836129b6565b9150613d8d82613d26565b604082019050919050565b60006020820190508181036000830152613db181613d75565b9050919050565b600081519050919050565b600082825260208201905092915050565b6000613ddf82613db8565b613de98185613dc3565b9350613df98185602086016129c7565b613e02816129fa565b840191505092915050565b6000608082019050613e226000830187612afb565b613e2f6020830186612afb565b613e3c6040830185612c11565b8181036060830152613e4e8184613dd4565b905095945050505050565b600081519050613e688161291c565b92915050565b600060208284031215613e8457613e836128e6565b5b6000613e9284828501613e59565b91505092915050565b7f4552433732313a206d696e7420746f20746865207a65726f2061646472657373600082015250565b6000613ed16020836129b6565b9150613edc82613e9b565b602082019050919050565b60006020820190508181036000830152613f0081613ec4565b9050919050565b7f4552433732313a20746f6b656e20616c7265616479206d696e74656400000000600082015250565b6000613f3d601c836129b6565b9150613f4882613f07565b602082019050919050565b60006020820190508181036000830152613f6c81613f30565b9050919050565b6000613f7e82612a66565b91507fffffffffffffffffffffffffffffffffffffffffffffffffffffffffffffffff821415613fb157613fb061353a565b5b600182019050919050565b7f4e487b7100000000000000000000000000000000000000000000000000000000600052601260045260246000fd5b6000613ff682612a66565b915061400183612a66565b92508261401157614010613fbc565b5b828204905092915050565b600061402782612a66565b915061403283612a66565b92508261404257614041613fbc565b5b828206905092915050565b7f4e487b7100000000000000000000000000000000000000000000000000000000600052603260045260246000fdfea2646970667358221220e2067e5a27c7f27d983e4370b6441e43af1a3d3903bb7cce27b8fa025c0d90ed64736f6c63430008090033",
  "linkReferences": {},
  "deployedLinkReferences": {}
}